{
  "contractName": "RentalAgreement",
  "abi": [
    {
      "inputs": [],
      "payable": false,
      "stateMutability": "nonpayable",
      "type": "constructor"
    },
    {
      "constant": true,
      "inputs": [
        {
          "internalType": "uint256",
          "name": "",
          "type": "uint256"
        }
      ],
      "name": "Rent_by_No",
      "outputs": [
        {
          "internalType": "uint256",
          "name": "rentno",
          "type": "uint256"
        },
        {
          "internalType": "uint256",
          "name": "roomid",
          "type": "uint256"
        },
        {
          "internalType": "uint256",
          "name": "agreementid",
          "type": "uint256"
        },
        {
          "internalType": "string",
          "name": "Roomname",
          "type": "string"
        },
        {
          "internalType": "string",
          "name": "RoomAddresss",
          "type": "string"
        },
        {
          "internalType": "uint256",
          "name": "rent_per_month",
          "type": "uint256"
        },
        {
          "internalType": "uint256",
          "name": "timestamp",
          "type": "uint256"
        },
        {
          "internalType": "address payable",
          "name": "tenantAddress",
          "type": "address"
        },
        {
          "internalType": "address payable",
          "name": "landlordAddress",
          "type": "address"
        }
      ],
      "payable": false,
      "stateMutability": "view",
      "type": "function"
    },
    {
      "constant": true,
      "inputs": [
        {
          "internalType": "uint256",
          "name": "",
          "type": "uint256"
        }
      ],
      "name": "RequestAgreementTermination_By_No",
      "outputs": [
        {
          "internalType": "uint256",
          "name": "terminationno",
          "type": "uint256"
        },
        {
          "internalType": "uint256",
          "name": "roomid",
          "type": "uint256"
        },
        {
          "internalType": "uint256",
          "name": "agreementid",
          "type": "uint256"
        },
        {
          "internalType": "uint256",
          "name": "timestamp",
          "type": "uint256"
        },
        {
          "internalType": "address",
          "name": "landlord",
          "type": "address"
        },
        {
          "internalType": "address",
          "name": "tenant",
          "type": "address"
        },
        {
          "internalType": "bool",
          "name": "terminated",
          "type": "bool"
        },
        {
          "internalType": "bool",
          "name": "rejected",
          "type": "bool"
        },
        {
          "internalType": "bool",
          "name": "completed",
          "type": "bool"
        }
      ],
      "payable": false,
      "stateMutability": "view",
      "type": "function"
    },
    {
      "constant": true,
      "inputs": [
        {
          "internalType": "uint256",
          "name": "",
          "type": "uint256"
        }
      ],
      "name": "RoomAgreement_by_No",
      "outputs": [
        {
          "internalType": "uint256",
          "name": "roomid",
          "type": "uint256"
        },
        {
          "internalType": "uint256",
          "name": "agreementid",
          "type": "uint256"
        },
        {
          "internalType": "string",
          "name": "Roomname",
          "type": "string"
        },
        {
          "internalType": "string",
          "name": "RoomAddresss",
          "type": "string"
        },
        {
          "internalType": "uint256",
          "name": "rent_per_month",
          "type": "uint256"
        },
        {
          "internalType": "uint256",
          "name": "securityDeposit",
          "type": "uint256"
        },
        {
          "internalType": "uint256",
          "name": "commisionpercentage",
          "type": "uint256"
        },
        {
          "internalType": "uint256",
          "name": "lockInPeriod",
          "type": "uint256"
        },
        {
          "internalType": "uint256",
          "name": "timestamp",
          "type": "uint256"
        },
        {
          "internalType": "address payable",
          "name": "tenantAddress",
          "type": "address"
        },
        {
          "internalType": "address payable",
          "name": "landlordAddress",
          "type": "address"
        }
      ],
      "payable": false,
      "stateMutability": "view",
      "type": "function"
    },
    {
      "constant": true,
      "inputs": [
        {
          "internalType": "uint256",
          "name": "",
          "type": "uint256"
        }
      ],
      "name": "Room_by_No",
      "outputs": [
        {
          "internalType": "uint256",
          "name": "roomid",
          "type": "uint256"
        },
        {
          "internalType": "uint256",
          "name": "agreementid",
          "type": "uint256"
        },
        {
          "internalType": "string",
          "name": "housename",
          "type": "string"
        },
        {
          "internalType": "string",
          "name": "houseaddress",
          "type": "string"
        },
        {
          "internalType": "uint256",
          "name": "rent_per_month",
          "type": "uint256"
        },
        {
          "internalType": "uint256",
          "name": "securityDeposit",
          "type": "uint256"
        },
        {
          "internalType": "uint256",
          "name": "timestamp",
          "type": "uint256"
        },
        {
          "internalType": "bool",
          "name": "vacant",
          "type": "bool"
        },
        {
          "internalType": "address payable",
          "name": "landlord",
          "type": "address"
        },
        {
          "internalType": "address payable",
          "name": "currentTenant",
          "type": "address"
        },
        {
          "internalType": "uint256",
          "name": "reports",
          "type": "uint256"
        },
        {
          "internalType": "bool",
          "name": "disableroom",
          "type": "bool"
        }
      ],
      "payable": false,
      "stateMutability": "view",
      "type": "function"
    },
    {
      "constant": true,
      "inputs": [],
      "name": "commisionpercentage",
      "outputs": [
        {
          "internalType": "uint256",
          "name": "",
          "type": "uint256"
        }
      ],
      "payable": false,
      "stateMutability": "view",
      "type": "function"
    },
    {
      "constant": true,
      "inputs": [],
      "name": "no_of_agreement",
      "outputs": [
        {
          "internalType": "uint256",
          "name": "",
          "type": "uint256"
        }
      ],
      "payable": false,
      "stateMutability": "view",
      "type": "function"
    },
    {
      "constant": true,
      "inputs": [],
      "name": "no_of_rent",
      "outputs": [
        {
          "internalType": "uint256",
          "name": "",
          "type": "uint256"
        }
      ],
      "payable": false,
      "stateMutability": "view",
      "type": "function"
    },
    {
      "constant": true,
      "inputs": [],
      "name": "no_of_rooms",
      "outputs": [
        {
          "internalType": "uint256",
          "name": "",
          "type": "uint256"
        }
      ],
      "payable": false,
      "stateMutability": "view",
      "type": "function"
    },
    {
      "constant": true,
      "inputs": [],
      "name": "no_of_terminationrequest",
      "outputs": [
        {
          "internalType": "uint256",
          "name": "",
          "type": "uint256"
        }
      ],
      "payable": false,
      "stateMutability": "view",
      "type": "function"
    },
    {
      "constant": true,
      "inputs": [
        {
          "internalType": "address",
          "name": "",
          "type": "address"
        },
        {
          "internalType": "uint256",
          "name": "",
          "type": "uint256"
        }
      ],
      "name": "reporters",
      "outputs": [
        {
          "internalType": "bool",
          "name": "reported",
          "type": "bool"
        }
      ],
      "payable": false,
      "stateMutability": "view",
      "type": "function"
    },
    {
      "constant": true,
      "inputs": [
        {
          "internalType": "uint256",
          "name": "",
          "type": "uint256"
        },
        {
          "internalType": "uint256",
          "name": "",
          "type": "uint256"
        }
      ],
      "name": "terminationreq",
      "outputs": [
        {
          "internalType": "bool",
          "name": "requested",
          "type": "bool"
        }
      ],
      "payable": false,
      "stateMutability": "view",
      "type": "function"
    },
    {
      "constant": false,
      "inputs": [
        {
          "internalType": "string",
          "name": "_housename",
          "type": "string"
        },
        {
          "internalType": "string",
          "name": "_houseaddress",
          "type": "string"
        },
        {
          "internalType": "uint256",
          "name": "_rentcost",
          "type": "uint256"
        },
        {
          "internalType": "uint256",
          "name": "_securitydeposit",
          "type": "uint256"
        }
      ],
      "name": "addRoom",
      "outputs": [],
      "payable": false,
      "stateMutability": "nonpayable",
      "type": "function"
    },
    {
      "constant": false,
      "inputs": [
        {
          "internalType": "uint256",
          "name": "_index",
          "type": "uint256"
        }
      ],
      "name": "signAgreement",
      "outputs": [],
      "payable": true,
      "stateMutability": "payable",
      "type": "function"
    },
    {
      "constant": false,
      "inputs": [
        {
          "internalType": "uint256",
          "name": "_index",
          "type": "uint256"
        }
      ],
      "name": "payRent",
      "outputs": [],
      "payable": true,
      "stateMutability": "payable",
      "type": "function"
    },
    {
      "constant": false,
      "inputs": [
        {
          "internalType": "uint256",
          "name": "_index",
          "type": "uint256"
        }
      ],
      "name": "agreementCompleted",
      "outputs": [],
      "payable": true,
      "stateMutability": "payable",
      "type": "function"
    },
    {
      "constant": false,
      "inputs": [
        {
          "internalType": "uint256",
          "name": "_index",
          "type": "uint256"
        },
        {
          "internalType": "uint256",
          "name": "_terminateno",
          "type": "uint256"
        }
      ],
      "name": "agreementTerminated",
      "outputs": [],
      "payable": false,
      "stateMutability": "nonpayable",
      "type": "function"
    },
    {
      "constant": false,
      "inputs": [
        {
          "internalType": "uint256",
          "name": "_index",
          "type": "uint256"
        },
        {
          "internalType": "uint256",
          "name": "_agreementno",
          "type": "uint256"
        },
        {
          "internalType": "uint256",
          "name": "_terminateno",
          "type": "uint256"
        }
      ],
      "name": "reject",
      "outputs": [],
      "payable": false,
      "stateMutability": "nonpayable",
      "type": "function"
    },
    {
      "constant": false,
      "inputs": [
        {
          "internalType": "uint256",
          "name": "_index",
          "type": "uint256"
        },
        {
          "internalType": "uint256",
          "name": "_agreementid",
          "type": "uint256"
        }
      ],
      "name": "requestTermination",
      "outputs": [],
      "payable": false,
      "stateMutability": "nonpayable",
      "type": "function"
    },
    {
      "constant": false,
      "inputs": [
        {
          "internalType": "uint256",
          "name": "_commision",
          "type": "uint256"
        }
      ],
      "name": "changeCommision",
      "outputs": [],
      "payable": false,
      "stateMutability": "nonpayable",
      "type": "function"
    },
    {
      "constant": false,
      "inputs": [
        {
          "internalType": "uint256",
          "name": "_index",
          "type": "uint256"
        }
      ],
      "name": "diableRoom",
      "outputs": [],
      "payable": false,
      "stateMutability": "nonpayable",
      "type": "function"
    },
    {
      "constant": false,
      "inputs": [],
      "name": "Admin",
      "outputs": [
        {
          "internalType": "address",
          "name": "",
          "type": "address"
        }
      ],
      "payable": false,
      "stateMutability": "nonpayable",
      "type": "function"
    },
    {
      "constant": false,
      "inputs": [
        {
          "internalType": "uint256",
          "name": "_index",
          "type": "uint256"
        }
      ],
      "name": "totalfee",
      "outputs": [
        {
          "internalType": "uint256",
          "name": "",
          "type": "uint256"
        }
      ],
      "payable": false,
      "stateMutability": "nonpayable",
      "type": "function"
    },
    {
      "constant": false,
      "inputs": [
        {
          "internalType": "uint256",
          "name": "_index",
          "type": "uint256"
        }
      ],
      "name": "rent",
      "outputs": [
        {
          "internalType": "uint256",
          "name": "",
          "type": "uint256"
        }
      ],
      "payable": false,
      "stateMutability": "nonpayable",
      "type": "function"
    },
    {
      "constant": false,
      "inputs": [
        {
          "internalType": "uint256",
          "name": "_index",
          "type": "uint256"
        }
      ],
      "name": "securitydeposit",
      "outputs": [
        {
          "internalType": "uint256",
          "name": "",
          "type": "uint256"
        }
      ],
      "payable": false,
      "stateMutability": "nonpayable",
      "type": "function"
    },
    {
      "constant": false,
      "inputs": [
        {
          "internalType": "uint256",
          "name": "_index",
          "type": "uint256"
        }
      ],
      "name": "landlordAddress",
      "outputs": [
        {
          "internalType": "address",
          "name": "",
          "type": "address"
        }
      ],
      "payable": false,
      "stateMutability": "nonpayable",
      "type": "function"
    },
    {
      "constant": false,
      "inputs": [
        {
          "internalType": "uint256",
          "name": "index",
          "type": "uint256"
        }
      ],
      "name": "reportroom",
      "outputs": [],
      "payable": false,
      "stateMutability": "nonpayable",
      "type": "function"
    }
  ],
  "bytecode": "0x60806040526000600355600060045560006005556000600655600560075534801561002957600080fd5b50336000806101000a81548173ffffffffffffffffffffffffffffffffffffffff021916908373ffffffffffffffffffffffffffffffffffffffff1602179055506140bf806100796000396000f3fe6080604052600436106101815760003560e01c806363e475bd116100d1578063a3eaed811161008a578063d0d205b711610064578063d0d205b7146105b1578063d9e8843f146105f6578063ed530e0d14610612578063ff1b636d1461065757610181565b8063a3eaed8114610534578063b7877f6d1461055d578063c00433d01461058657610181565b806363e475bd146104125780636cf1c7a21461043b57806371011ae5146104645780637456be7d146104a157806375eb9ef6146104de5780639a7efda21461050957610181565b806332e7a8881161013e57806344f136a71161011857806344f136a714610339578063469595871461036257806352753c09146103aa57806359e2cbec146103e757610181565b806332e7a8881461028257806336e0862d146102bf5780633ef9a386146102fc57610181565b806302bb27251461018657806303742de0146101cd5780630ff2a806146101e957806316abb8a1146102145780631aadb6ac146102305780631dc3b3c014610259575b600080fd5b34801561019257600080fd5b506101ad60048036036101a8919081019061357d565b610682565b6040516101c49b9a99989796959493929190613d4b565b60405180910390f35b6101e760048036036101e2919081019061357d565b61084c565b005b3480156101f557600080fd5b506101fe6112bc565b60405161020b9190613c68565b60405180910390f35b61022e6004803603610229919081019061357d565b6112c2565b005b34801561023c57600080fd5b506102576004803603610252919081019061357d565b6115dd565b005b34801561026557600080fd5b50610280600480360361027b91908101906135a6565b6118db565b005b34801561028e57600080fd5b506102a960048036036102a4919081019061357d565b611da2565b6040516102b69190613c68565b60405180910390f35b3480156102cb57600080fd5b506102e660048036036102e191908101906134ae565b611deb565b6040516102f39190613a8d565b60405180910390f35b34801561030857600080fd5b50610323600480360361031e91908101906135a6565b611e23565b6040516103309190613a8d565b60405180910390f35b34801561034557600080fd5b50610360600480360361035b91908101906135e2565b611e5b565b005b34801561036e57600080fd5b506103896004803603610384919081019061357d565b612031565b6040516103a19c9b9a99989796959493929190613c83565b60405180910390f35b3480156103b657600080fd5b506103d160048036036103cc919081019061357d565b61221b565b6040516103de9190613a72565b60405180910390f35b3480156103f357600080fd5b506103fc612260565b6040516104099190613c68565b60405180910390f35b34801561041e57600080fd5b50610439600480360361043491908101906134ea565b612266565b005b34801561044757600080fd5b50610462600480360361045d91908101906135a6565b6124a8565b005b34801561047057600080fd5b5061048b6004803603610486919081019061357d565b61276c565b6040516104989190613c68565b60405180910390f35b3480156104ad57600080fd5b506104c860048036036104c3919081019061357d565b612791565b6040516104d59190613c68565b60405180910390f35b3480156104ea57600080fd5b506104f36127b6565b6040516105009190613c68565b60405180910390f35b34801561051557600080fd5b5061051e6127bc565b60405161052b9190613c68565b60405180910390f35b34801561054057600080fd5b5061055b6004803603610556919081019061357d565b6127c2565b005b34801561056957600080fd5b50610584600480360361057f919081019061357d565b61291c565b005b34801561059257600080fd5b5061059b612a7c565b6040516105a89190613c68565b60405180910390f35b3480156105bd57600080fd5b506105d860048036036105d3919081019061357d565b612a82565b6040516105ed99989796959493929190613e04565b60405180910390f35b610610600480360361060b919081019061357d565b612c40565b005b34801561061e57600080fd5b506106396004803603610634919081019061357d565b6132ad565b60405161064e99989796959493929190613e9f565b60405180910390f35b34801561066357600080fd5b5061066c613362565b6040516106799190613a72565b60405180910390f35b6009602052806000526040600020600091509050806000015490806001015490806002018054600181600116156101000203166002900480601f01602080910402602001604051908101604052809291908181526020018280546001816001161561010002031660029004801561073a5780601f1061070f5761010080835404028352916020019161073a565b820191906000526020600020905b81548152906001019060200180831161071d57829003601f168201915b505050505090806003018054600181600116156101000203166002900480601f0160208091040260200160405190810160405280929190818152602001828054600181600116156101000203166002900480156107d85780601f106107ad576101008083540402835291602001916107d8565b820191906000526020600020905b8154815290600101906020018083116107bb57829003601f168201915b5050505050908060040154908060050154908060060154908060070154908060080154908060090160009054906101000a900473ffffffffffffffffffffffffffffffffffffffff169080600a0160009054906101000a900473ffffffffffffffffffffffffffffffffffffffff1690508b565b806008600082815260200190815260200160002060070160019054906101000a900473ffffffffffffffffffffffffffffffffffffffff1673ffffffffffffffffffffffffffffffffffffffff163373ffffffffffffffffffffffffffffffffffffffff1614156108f2576040517f08c379a00000000000000000000000000000000000000000000000000000000081526004016108e990613b28565b60405180910390fd5b816008600082815260200190815260200160002060050154600860008381526020019081526020016000206004015401341015610964576040517f08c379a000000000000000000000000000000000000000000000000000000000815260040161095b90613b68565b60405180910390fd5b82600115156008600083815260200190815260200160002060070160009054906101000a900460ff161515146109cf576040517f08c379a00000000000000000000000000000000000000000000000000000000081526004016109c690613ac8565b60405180910390fd5b836000151560086000838152602001908152602001600020600a0160009054906101000a900460ff16151514610a3a576040517f08c379a0000000000000000000000000000000000000000000000000000000008152600401610a3190613bc8565b60405180910390fd5b600073ffffffffffffffffffffffffffffffffffffffff163373ffffffffffffffffffffffffffffffffffffffff161415610a7457600080fd5b60006008600087815260200190815260200160002060070160019054906101000a900473ffffffffffffffffffffffffffffffffffffffff16905060006008600088815260200190815260200160002060050154600860008981526020019081526020016000206004015401905060006064600754830281610af257fe5b049050600081830390506000809054906101000a900473ffffffffffffffffffffffffffffffffffffffff1673ffffffffffffffffffffffffffffffffffffffff166108fc839081150290604051600060405180830381858888f19350505050158015610b63573d6000803e3d6000fd5b508373ffffffffffffffffffffffffffffffffffffffff166108fc829081150290604051600060405180830381858888f19350505050158015610baa573d6000803e3d6000fd5b5060046000815480929190600101919050555033600860008b815260200190815260200160002060080160006101000a81548173ffffffffffffffffffffffffffffffffffffffff021916908373ffffffffffffffffffffffffffffffffffffffff1602179055506000600860008b815260200190815260200160002060070160006101000a81548160ff02191690831515021790555042600860008b815260200190815260200160002060060181905550600454600860008b8152602001908152602001600020600101819055506040518061016001604052808a81526020016004548152602001600860008c81526020019081526020016000206002018054600181600116156101000203166002900480601f016020809104026020016040519081016040528092919081815260200182805460018160011615610100020316600290048015610d3d5780601f10610d1257610100808354040283529160200191610d3d565b820191906000526020600020905b815481529060010190602001808311610d2057829003601f168201915b50505050508152602001600860008c81526020019081526020016000206003018054600181600116156101000203166002900480601f016020809104026020016040519081016040528092919081815260200182805460018160011615610100020316600290048015610df15780601f10610dc657610100808354040283529160200191610df1565b820191906000526020600020905b815481529060010190602001808311610dd457829003601f168201915b50505050508152602001600860008c8152602001908152602001600020600401548152602001600860008c815260200190815260200160002060050154815260200160075481526020016301e1338081526020014281526020013373ffffffffffffffffffffffffffffffffffffffff1681526020018573ffffffffffffffffffffffffffffffffffffffff1681525060096000600454815260200190815260200160002060008201518160000155602082015181600101556040820151816002019080519060200190610ec692919061338b565b506060820151816003019080519060200190610ee392919061338b565b506080820151816004015560a0820151816005015560c0820151816006015560e0820151816007015561010082015181600801556101208201518160090160006101000a81548173ffffffffffffffffffffffffffffffffffffffff021916908373ffffffffffffffffffffffffffffffffffffffff16021790555061014082015181600a0160006101000a81548173ffffffffffffffffffffffffffffffffffffffff021916908373ffffffffffffffffffffffffffffffffffffffff16021790555090505060056000815480929190600101919050555060405180610120016040528060055481526020018a81526020016004548152602001600860008c81526020019081526020016000206002018054600181600116156101000203166002900480601f0160208091040260200160405190810160405280929190818152602001828054600181600116156101000203166002900480156110885780601f1061105d57610100808354040283529160200191611088565b820191906000526020600020905b81548152906001019060200180831161106b57829003601f168201915b50505050508152602001600860008c81526020019081526020016000206003018054600181600116156101000203166002900480601f01602080910402602001604051908101604052809291908181526020018280546001816001161561010002031660029004801561113c5780601f106111115761010080835404028352916020019161113c565b820191906000526020600020905b81548152906001019060200180831161111f57829003601f168201915b50505050508152602001600860008c81526020019081526020016000206004015481526020014281526020013373ffffffffffffffffffffffffffffffffffffffff1681526020018573ffffffffffffffffffffffffffffffffffffffff16815250600a6000600554815260200190815260200160002060008201518160000155602082015181600101556040820151816002015560608201518160030190805190602001906111ed92919061338b565b50608082015181600401908051906020019061120a92919061338b565b5060a0820151816005015560c0820151816006015560e08201518160070160006101000a81548173ffffffffffffffffffffffffffffffffffffffff021916908373ffffffffffffffffffffffffffffffffffffffff1602179055506101008201518160080160006101000a81548173ffffffffffffffffffffffffffffffffffffffff021916908373ffffffffffffffffffffffffffffffffffffffff160217905550905050505050505050505050565b60045481565b806008600082815260200190815260200160002060070160019054906101000a900473ffffffffffffffffffffffffffffffffffffffff1673ffffffffffffffffffffffffffffffffffffffff163373ffffffffffffffffffffffffffffffffffffffff1614611367576040517f08c379a000000000000000000000000000000000000000000000000000000000815260040161135e90613ae8565b60405180910390fd5b816000600860008381526020019081526020016000206001015490506000600960008381526020019081526020016000206007015460096000848152602001908152602001600020600801540190508042116113f8576040517f08c379a00000000000000000000000000000000000000000000000000000000081526004016113ef90613c48565b60405180910390fd5b846000151560086000838152602001908152602001600020600a0160009054906101000a900460ff16151514611463576040517f08c379a000000000000000000000000000000000000000000000000000000000815260040161145a90613bc8565b60405180910390fd5b600073ffffffffffffffffffffffffffffffffffffffff163373ffffffffffffffffffffffffffffffffffffffff16141561149d57600080fd5b600015156008600088815260200190815260200160002060070160009054906101000a900460ff16151514611507576040517f08c379a00000000000000000000000000000000000000000000000000000000081526004016114fe90613ac8565b60405180910390fd5b60016008600088815260200190815260200160002060070160006101000a81548160ff02191690831515021790555060006008600088815260200190815260200160002060080160009054906101000a900473ffffffffffffffffffffffffffffffffffffffff1690506000600860008981526020019081526020016000206005015490508173ffffffffffffffffffffffffffffffffffffffff166108fc829081150290604051600060405180830381858888f193505050501580156115d2573d6000803e3d6000fd5b505050505050505050565b806008600082815260200190815260200160002060070160019054906101000a900473ffffffffffffffffffffffffffffffffffffffff1673ffffffffffffffffffffffffffffffffffffffff163373ffffffffffffffffffffffffffffffffffffffff161415611683576040517f08c379a000000000000000000000000000000000000000000000000000000000815260040161167a90613b28565b60405180910390fd5b816000151560086000838152602001908152602001600020600a0160009054906101000a900460ff161515146116ee576040517f08c379a00000000000000000000000000000000000000000000000000000000081526004016116e590613bc8565b60405180910390fd5b600073ffffffffffffffffffffffffffffffffffffffff163373ffffffffffffffffffffffffffffffffffffffff16141561172857600080fd5b60006008600085815260200190815260200160002060090154905060001515600c60003373ffffffffffffffffffffffffffffffffffffffff1673ffffffffffffffffffffffffffffffffffffffff168152602001908152602001600020600086815260200190815260200160002060000160009054906101000a900460ff16151514156118445780806001019150508060086000868152602001908152602001600020600901819055506001600c60003373ffffffffffffffffffffffffffffffffffffffff1673ffffffffffffffffffffffffffffffffffffffff168152602001908152602001600020600086815260200190815260200160002060000160006101000a81548160ff0219169083151502179055506118d5565b8080600190039150508060086000868152602001908152602001600020600901819055506000600c60003373ffffffffffffffffffffffffffffffffffffffff1673ffffffffffffffffffffffffffffffffffffffff168152602001908152602001600020600086815260200190815260200160002060000160006101000a81548160ff0219169083151502179055505b50505050565b816008600082815260200190815260200160002060070160019054906101000a900473ffffffffffffffffffffffffffffffffffffffff1673ffffffffffffffffffffffffffffffffffffffff163373ffffffffffffffffffffffffffffffffffffffff1614611980576040517f08c379a000000000000000000000000000000000000000000000000000000000815260040161197790613ae8565b60405180910390fd5b82600060086000838152602001908152602001600020600101549050600060096000838152602001908152602001600020600701546009600084815260200190815260200160002060080154019050804210611a11576040517f08c379a0000000000000000000000000000000000000000000000000000000008152600401611a0890613aa8565b60405180910390fd5b858560001515600d6000848152602001908152602001600020600083815260200190815260200160002060000160009054906101000a900460ff16151514611a8e576040517f08c379a0000000000000000000000000000000000000000000000000000000008152600401611a8590613be8565b60405180910390fd5b876000151560086000838152602001908152602001600020600a0160009054906101000a900460ff16151514611af9576040517f08c379a0000000000000000000000000000000000000000000000000000000008152600401611af090613bc8565b60405180910390fd5b600073ffffffffffffffffffffffffffffffffffffffff163373ffffffffffffffffffffffffffffffffffffffff161415611b3357600080fd5b6001600d60008b815260200190815260200160002060008a815260200190815260200160002060000160006101000a81548160ff02191690831515021790555060066000815480929190600101919050555060405180610120016040528060065481526020018a8152602001898152602001428152602001600860008c815260200190815260200160002060070160019054906101000a900473ffffffffffffffffffffffffffffffffffffffff1673ffffffffffffffffffffffffffffffffffffffff168152602001600860008c815260200190815260200160002060080160009054906101000a900473ffffffffffffffffffffffffffffffffffffffff1673ffffffffffffffffffffffffffffffffffffffff16815260200160001515815260200160001515815260200160001515815250600b600060065481526020019081526020016000206000820151816000015560208201518160010155604082015181600201556060820151816003015560808201518160040160006101000a81548173ffffffffffffffffffffffffffffffffffffffff021916908373ffffffffffffffffffffffffffffffffffffffff16021790555060a08201518160050160006101000a81548173ffffffffffffffffffffffffffffffffffffffff021916908373ffffffffffffffffffffffffffffffffffffffff16021790555060c08201518160050160146101000a81548160ff02191690831515021790555060e08201518160050160156101000a81548160ff0219169083151502179055506101008201518160050160166101000a81548160ff021916908315150217905550905050505050505050505050565b6000806008600084815260200190815260200160002060040154905060006008600085815260200190815260200160002060050154905060008183019050809350505050919050565b600c602052816000526040600020602052806000526040600020600091509150508060000160009054906101000a900460ff16905081565b600d602052816000526040600020602052806000526040600020600091509150508060000160009054906101000a900460ff16905081565b6000809054906101000a900473ffffffffffffffffffffffffffffffffffffffff1673ffffffffffffffffffffffffffffffffffffffff163373ffffffffffffffffffffffffffffffffffffffff1614611eea576040517f08c379a0000000000000000000000000000000000000000000000000000000008152600401611ee190613ba8565b60405180910390fd5b600073ffffffffffffffffffffffffffffffffffffffff163373ffffffffffffffffffffffffffffffffffffffff161415611f2457600080fd5b60001515600b600083815260200190815260200160002060050160169054906101000a900460ff16151514611f8e576040517f08c379a0000000000000000000000000000000000000000000000000000000008152600401611f8590613c08565b60405180910390fd5b6000600d6000858152602001908152602001600020600084815260200190815260200160002060000160006101000a81548160ff0219169083151502179055506001600b600083815260200190815260200160002060050160156101000a81548160ff0219169083151502179055506001600b600083815260200190815260200160002060050160166101000a81548160ff021916908315150217905550505050565b6008602052806000526040600020600091509050806000015490806001015490806002018054600181600116156101000203166002900480601f0160208091040260200160405190810160405280929190818152602001828054600181600116156101000203166002900480156120e95780601f106120be576101008083540402835291602001916120e9565b820191906000526020600020905b8154815290600101906020018083116120cc57829003601f168201915b505050505090806003018054600181600116156101000203166002900480601f0160208091040260200160405190810160405280929190818152602001828054600181600116156101000203166002900480156121875780601f1061215c57610100808354040283529160200191612187565b820191906000526020600020905b81548152906001019060200180831161216a57829003601f168201915b5050505050908060040154908060050154908060060154908060070160009054906101000a900460ff16908060070160019054906101000a900473ffffffffffffffffffffffffffffffffffffffff16908060080160009054906101000a900473ffffffffffffffffffffffffffffffffffffffff169080600901549080600a0160009054906101000a900460ff1690508c565b6000806008600084815260200190815260200160002060070160019054906101000a900473ffffffffffffffffffffffffffffffffffffffff16905080915050919050565b60035481565b600073ffffffffffffffffffffffffffffffffffffffff163373ffffffffffffffffffffffffffffffffffffffff1614156122a057600080fd5b6003600081548092919060010191905055506000600190506040518061018001604052806003548152602001600081526020018681526020018581526020018481526020018381526020016000815260200182151581526020013373ffffffffffffffffffffffffffffffffffffffff168152602001600073ffffffffffffffffffffffffffffffffffffffff16815260200160008152602001600015158152506008600060035481526020019081526020016000206000820151816000015560208201518160010155604082015181600201908051906020019061238692919061338b565b5060608201518160030190805190602001906123a392919061338b565b506080820151816004015560a0820151816005015560c0820151816006015560e08201518160070160006101000a81548160ff0219169083151502179055506101008201518160070160016101000a81548173ffffffffffffffffffffffffffffffffffffffff021916908373ffffffffffffffffffffffffffffffffffffffff1602179055506101208201518160080160006101000a81548173ffffffffffffffffffffffffffffffffffffffff021916908373ffffffffffffffffffffffffffffffffffffffff160217905550610140820151816009015561016082015181600a0160006101000a81548160ff0219169083151502179055509050505050505050565b6000809054906101000a900473ffffffffffffffffffffffffffffffffffffffff1673ffffffffffffffffffffffffffffffffffffffff163373ffffffffffffffffffffffffffffffffffffffff1614612537576040517f08c379a000000000000000000000000000000000000000000000000000000000815260040161252e90613ba8565b60405180910390fd5b816000600860008381526020019081526020016000206001015490506000600960008381526020019081526020016000206007015460096000848152602001908152602001600020600801540190508042106125c8576040517f08c379a00000000000000000000000000000000000000000000000000000000081526004016125bf90613aa8565b60405180910390fd5b846000151560086000838152602001908152602001600020600a0160009054906101000a900460ff16151514612633576040517f08c379a000000000000000000000000000000000000000000000000000000000815260040161262a90613bc8565b60405180910390fd5b600073ffffffffffffffffffffffffffffffffffffffff163373ffffffffffffffffffffffffffffffffffffffff16141561266d57600080fd5b60001515600b600087815260200190815260200160002060050160169054906101000a900460ff161515146126d7576040517f08c379a00000000000000000000000000000000000000000000000000000000081526004016126ce90613c08565b60405180910390fd5b60016008600088815260200190815260200160002060070160006101000a81548160ff0219169083151502179055506001600b600087815260200190815260200160002060050160146101000a81548160ff0219169083151502179055506001600b600087815260200190815260200160002060050160166101000a81548160ff021916908315150217905550505050505050565b6000806008600084815260200190815260200160002060050154905080915050919050565b6000806008600084815260200190815260200160002060040154905080915050919050565b60055481565b60075481565b6000809054906101000a900473ffffffffffffffffffffffffffffffffffffffff1673ffffffffffffffffffffffffffffffffffffffff163373ffffffffffffffffffffffffffffffffffffffff1614612851576040517f08c379a000000000000000000000000000000000000000000000000000000000815260040161284890613ba8565b60405180910390fd5b600073ffffffffffffffffffffffffffffffffffffffff163373ffffffffffffffffffffffffffffffffffffffff16141561288b57600080fd5b60008110156128cf576040517f08c379a00000000000000000000000000000000000000000000000000000000081526004016128c690613b88565b60405180910390fd5b60648110612912576040517f08c379a000000000000000000000000000000000000000000000000000000000815260040161290990613b08565b60405180910390fd5b8060078190555050565b6000809054906101000a900473ffffffffffffffffffffffffffffffffffffffff1673ffffffffffffffffffffffffffffffffffffffff163373ffffffffffffffffffffffffffffffffffffffff16146129ab576040517f08c379a00000000000000000000000000000000000000000000000000000000081526004016129a290613ba8565b60405180910390fd5b600073ffffffffffffffffffffffffffffffffffffffff163373ffffffffffffffffffffffffffffffffffffffff1614156129e557600080fd5b6000151560086000838152602001908152602001600020600a0160009054906101000a900460ff1615151415612a4957600160086000838152602001908152602001600020600a0160006101000a81548160ff021916908315150217905550612a79565b600060086000838152602001908152602001600020600a0160006101000a81548160ff0219169083151502179055505b50565b60065481565b600a602052806000526040600020600091509050806000015490806001015490806002015490806003018054600181600116156101000203166002900480601f016020809104026020016040519081016040528092919081815260200182805460018160011615610100020316600290048015612b405780601f10612b1557610100808354040283529160200191612b40565b820191906000526020600020905b815481529060010190602001808311612b2357829003601f168201915b505050505090806004018054600181600116156101000203166002900480601f016020809104026020016040519081016040528092919081815260200182805460018160011615610100020316600290048015612bde5780601f10612bb357610100808354040283529160200191612bde565b820191906000526020600020905b815481529060010190602001808311612bc157829003601f168201915b5050505050908060050154908060060154908060070160009054906101000a900473ffffffffffffffffffffffffffffffffffffffff16908060080160009054906101000a900473ffffffffffffffffffffffffffffffffffffffff16905089565b806008600082815260200190815260200160002060080160009054906101000a900473ffffffffffffffffffffffffffffffffffffffff1673ffffffffffffffffffffffffffffffffffffffff163373ffffffffffffffffffffffffffffffffffffffff1614612ce5576040517f08c379a0000000000000000000000000000000000000000000000000000000008152600401612cdc90613b48565b60405180910390fd5b81600062278d006008600084815260200190815260200160002060060154019050804214612d48576040517f08c379a0000000000000000000000000000000000000000000000000000000008152600401612d3f90613c28565b60405180910390fd5b836008600082815260200190815260200160002060040154341015612da2576040517f08c379a0000000000000000000000000000000000000000000000000000000008152600401612d9990613b68565b60405180910390fd5b846000151560086000838152602001908152602001600020600a0160009054906101000a900460ff16151514612e0d576040517f08c379a0000000000000000000000000000000000000000000000000000000008152600401612e0490613bc8565b60405180910390fd5b600073ffffffffffffffffffffffffffffffffffffffff163373ffffffffffffffffffffffffffffffffffffffff161415612e4757600080fd5b60006008600088815260200190815260200160002060070160019054906101000a900473ffffffffffffffffffffffffffffffffffffffff1690506000600860008981526020019081526020016000206004015490508173ffffffffffffffffffffffffffffffffffffffff166108fc829081150290604051600060405180830381858888f19350505050158015612ee3573d6000803e3d6000fd5b5033600860008a815260200190815260200160002060080160006101000a81548173ffffffffffffffffffffffffffffffffffffffff021916908373ffffffffffffffffffffffffffffffffffffffff1602179055506000600860008a815260200190815260200160002060070160006101000a81548160ff0219169083151502179055506005600081548092919060010191905055506040518061012001604052806005548152602001898152602001600860008b8152602001908152602001600020600101548152602001600860008b81526020019081526020016000206002018054600181600116156101000203166002900480601f01602080910402602001604051908101604052809291908181526020018280546001816001161561010002031660029004801561305a5780601f1061302f5761010080835404028352916020019161305a565b820191906000526020600020905b81548152906001019060200180831161303d57829003601f168201915b50505050508152602001600860008b81526020019081526020016000206003018054600181600116156101000203166002900480601f01602080910402602001604051908101604052809291908181526020018280546001816001161561010002031660029004801561310e5780601f106130e35761010080835404028352916020019161310e565b820191906000526020600020905b8154815290600101906020018083116130f157829003601f168201915b505050505081526020018281526020014281526020013373ffffffffffffffffffffffffffffffffffffffff168152602001600860008b815260200190815260200160002060070160019054906101000a900473ffffffffffffffffffffffffffffffffffffffff1673ffffffffffffffffffffffffffffffffffffffff16815250600a6000600554815260200190815260200160002060008201518160000155602082015181600101556040820151816002015560608201518160030190805190602001906131df92919061338b565b5060808201518160040190805190602001906131fc92919061338b565b5060a0820151816005015560c0820151816006015560e08201518160070160006101000a81548173ffffffffffffffffffffffffffffffffffffffff021916908373ffffffffffffffffffffffffffffffffffffffff1602179055506101008201518160080160006101000a81548173ffffffffffffffffffffffffffffffffffffffff021916908373ffffffffffffffffffffffffffffffffffffffff1602179055509050505050505050505050565b600b6020528060005260406000206000915090508060000154908060010154908060020154908060030154908060040160009054906101000a900473ffffffffffffffffffffffffffffffffffffffff16908060050160009054906101000a900473ffffffffffffffffffffffffffffffffffffffff16908060050160149054906101000a900460ff16908060050160159054906101000a900460ff16908060050160169054906101000a900460ff16905089565b60008060009054906101000a900473ffffffffffffffffffffffffffffffffffffffff16905090565b828054600181600116156101000203166002900490600052602060002090601f016020900481019282601f106133cc57805160ff19168380011785556133fa565b828001600101855582156133fa579182015b828111156133f95782518255916020019190600101906133de565b5b509050613407919061340b565b5090565b61342d91905b80821115613429576000816000905550600101613411565b5090565b90565b60008135905061343f8161404e565b92915050565b600082601f83011261345657600080fd5b813561346961346482613f59565b613f2c565b9150808252602083016020830185838301111561348557600080fd5b613490838284613ffb565b50505092915050565b6000813590506134a881614065565b92915050565b600080604083850312156134c157600080fd5b60006134cf85828601613430565b92505060206134e085828601613499565b9150509250929050565b6000806000806080858703121561350057600080fd5b600085013567ffffffffffffffff81111561351a57600080fd5b61352687828801613445565b945050602085013567ffffffffffffffff81111561354357600080fd5b61354f87828801613445565b935050604061356087828801613499565b925050606061357187828801613499565b91505092959194509250565b60006020828403121561358f57600080fd5b600061359d84828501613499565b91505092915050565b600080604083850312156135b957600080fd5b60006135c785828601613499565b92505060206135d885828601613499565b9150509250929050565b6000806000606084860312156135f757600080fd5b600061360586828701613499565b935050602061361686828701613499565b925050604061362786828701613499565b9150509250925092565b61363a81613fb3565b82525050565b61364981613fa1565b82525050565b61365881613fc5565b82525050565b600061366982613f85565b6136738185613f90565b935061368381856020860161400a565b61368c8161403d565b840191505092915050565b60006136a4601783613f90565b91507f41677265656d656e7420616c726561647920456e6465640000000000000000006000830152602082019050919050565b60006136e4601b83613f90565b91507f526f6f6d2069732063757272656e746c79204f636375706965642e00000000006000830152602082019050919050565b6000613724601d83613f90565b91507f4f6e6c79206c616e646c6f72642063616e2061636365737320746869730000006000830152602082019050919050565b6000613764602183613f90565b91507f63616e206e6f7420626520657175616c206f72206d6f7265207468616e20313060008301527f30000000000000000000000000000000000000000000000000000000000000006020830152604082019050919050565b60006137ca601b83613f90565b91507f4f6e6c792054656e616e742063616e20616363657373207468697300000000006000830152602082019050919050565b600061380a602f83613f90565b91507f4e6f2070726576696f75732061677265656d656e7420666f756e64207769746860008301527f20796f752026206c616e646c6f726400000000000000000000000000000000006020830152604082019050919050565b6000613870601f83613f90565b91507f4e6f7420656e6f75676820457468657220696e20796f75722077616c6c6574006000830152602082019050919050565b60006138b0601383613f90565b91507f63616e206e6f74206265206e65676174697665000000000000000000000000006000830152602082019050919050565b60006138f0601a83613f90565b91507f4f6e6c792041646d696e2063616e2061636365737320746869730000000000006000830152602082019050919050565b6000613930601583613f90565b91507f526f6f6d20416c72656164792044697361626c656400000000000000000000006000830152602082019050919050565b6000613970601183613f90565b91507f416c7265616479205265717565737465640000000000000000000000000000006000830152602082019050919050565b60006139b0601983613f90565b91507f5265717565737420416c726561647920436f6d706c65746564000000000000006000830152602082019050919050565b60006139f0601583613f90565b91507f54696d65206c65667420746f207061792052656e7400000000000000000000006000830152602082019050919050565b6000613a30601e83613f90565b91507f54696d6573206c65667420666f7220636f6e747261637420746f20656e6400006000830152602082019050919050565b613a6c81613ff1565b82525050565b6000602082019050613a876000830184613640565b92915050565b6000602082019050613aa2600083018461364f565b92915050565b60006020820190508181036000830152613ac181613697565b9050919050565b60006020820190508181036000830152613ae1816136d7565b9050919050565b60006020820190508181036000830152613b0181613717565b9050919050565b60006020820190508181036000830152613b2181613757565b9050919050565b60006020820190508181036000830152613b41816137bd565b9050919050565b60006020820190508181036000830152613b61816137fd565b9050919050565b60006020820190508181036000830152613b8181613863565b9050919050565b60006020820190508181036000830152613ba1816138a3565b9050919050565b60006020820190508181036000830152613bc1816138e3565b9050919050565b60006020820190508181036000830152613be181613923565b9050919050565b60006020820190508181036000830152613c0181613963565b9050919050565b60006020820190508181036000830152613c21816139a3565b9050919050565b60006020820190508181036000830152613c41816139e3565b9050919050565b60006020820190508181036000830152613c6181613a23565b9050919050565b6000602082019050613c7d6000830184613a63565b92915050565b600061018082019050613c99600083018f613a63565b613ca6602083018e613a63565b8181036040830152613cb8818d61365e565b90508181036060830152613ccc818c61365e565b9050613cdb608083018b613a63565b613ce860a083018a613a63565b613cf560c0830189613a63565b613d0260e083018861364f565b613d10610100830187613631565b613d1e610120830186613631565b613d2c610140830185613a63565b613d3a61016083018461364f565b9d9c50505050505050505050505050565b600061016082019050613d61600083018e613a63565b613d6e602083018d613a63565b8181036040830152613d80818c61365e565b90508181036060830152613d94818b61365e565b9050613da3608083018a613a63565b613db060a0830189613a63565b613dbd60c0830188613a63565b613dca60e0830187613a63565b613dd8610100830186613a63565b613de6610120830185613631565b613df4610140830184613631565b9c9b505050505050505050505050565b600061012082019050613e1a600083018c613a63565b613e27602083018b613a63565b613e34604083018a613a63565b8181036060830152613e46818961365e565b90508181036080830152613e5a818861365e565b9050613e6960a0830187613a63565b613e7660c0830186613a63565b613e8360e0830185613631565b613e91610100830184613631565b9a9950505050505050505050565b600061012082019050613eb5600083018c613a63565b613ec2602083018b613a63565b613ecf604083018a613a63565b613edc6060830189613a63565b613ee96080830188613640565b613ef660a0830187613640565b613f0360c083018661364f565b613f1060e083018561364f565b613f1e61010083018461364f565b9a9950505050505050505050565b6000604051905081810181811067ffffffffffffffff82111715613f4f57600080fd5b8060405250919050565b600067ffffffffffffffff821115613f7057600080fd5b601f19601f8301169050602081019050919050565b600081519050919050565b600082825260208201905092915050565b6000613fac82613fd1565b9050919050565b6000613fbe82613fd1565b9050919050565b60008115159050919050565b600073ffffffffffffffffffffffffffffffffffffffff82169050919050565b6000819050919050565b82818337600083830152505050565b60005b8381101561402857808201518184015260208101905061400d565b83811115614037576000848401525b50505050565b6000601f19601f8301169050919050565b61405781613fa1565b811461406257600080fd5b50565b61406e81613ff1565b811461407957600080fd5b5056fea365627a7a72315820ab616957369a372ddc57db45963cac6c7107a41678c0dc82ce9ca5f2938a7d666c6578706572696d656e74616cf564736f6c63430005100040",
  "source": "pragma solidity ^0.5.16;\npragma experimental ABIEncoderV2;\n\ncontract RentalAgreement{\n    address payable admin;\n    address payable tenant;\n    address payable landlord;\n    uint public no_of_rooms = 0;\n    uint public no_of_agreement = 0;\n    uint public no_of_rent = 0;\n    uint public no_of_terminationrequest = 0;\n    uint public commisionpercentage = 5;\n\n    constructor() public{\n        admin = msg.sender;\n    }\n    \n    struct Room{\n        uint roomid;\n        uint agreementid;\n        string housename;\n        string houseaddress;\n        uint rent_per_month;\n        uint securityDeposit;\n        uint timestamp;\n        bool vacant;\n        address payable landlord;\n        address payable currentTenant;\n        uint reports;\n        bool disableroom;\n    }\n    \n    mapping(uint => Room) public Room_by_No;\n    \n    struct RoomAgreement{\n        uint roomid;\n        uint agreementid;\n        string Roomname;\n        string RoomAddresss;\n        uint rent_per_month;\n        uint securityDeposit;\n        uint commisionpercentage;\n        uint lockInPeriod;\n        uint timestamp;\n        address payable tenantAddress;\n        address payable landlordAddress;\n    }\n    \n   mapping(uint => RoomAgreement) public RoomAgreement_by_No;\n    \n    struct Rent{\n        uint rentno;\n        uint roomid;\n        uint agreementid;\n        string Roomname;\n        string RoomAddresss;\n        uint rent_per_month;\n        uint timestamp;\n        address payable tenantAddress;\n        address payable landlordAddress;\n    }\n    \n   mapping(uint => Rent) public Rent_by_No;\n    \n    struct RequestAgreementTermination{\n        uint terminationno;\n        uint roomid;\n        uint agreementid;\n        uint timestamp;\n        address landlord;\n        address tenant;\n        bool terminated;\n        bool rejected;\n        bool completed;\n    }\n\n    mapping(uint => RequestAgreementTermination) public RequestAgreementTermination_By_No;\n    \n    struct Reporter{\n        bool reported;\n    }\n  \n    mapping(address => mapping(uint =>  Reporter)) public reporters;\n  \n    struct Terminationreq{\n        bool requested;\n    }\n    \n    mapping(uint => mapping(uint =>  Terminationreq)) public terminationreq;\n\n\n    modifier onlyAdmin() {\n        require(msg.sender == admin, \"Only Admin can access this\");\n        _;\n    }\n    \n    modifier onlyLandlord(uint _index) {\n        require(msg.sender == Room_by_No[_index].landlord, \"Only landlord can access this\");\n        _;\n    }\n    \n    modifier notLandLord(uint _index) {\n        require(msg.sender != Room_by_No[_index].landlord, \"Only Tenant can access this\");\n        _;\n    }\n    \n    modifier OnlyWhileVacant(uint _index){\n        \n        require(Room_by_No[_index].vacant == true, \"Room is currently Occupied.\");\n        _;\n    }\n    \n    modifier enoughRent(uint _index) {\n        require(msg.value >= uint(Room_by_No[_index].rent_per_month), \"Not enough Ether in your wallet\");\n        _;\n    }\n    \n    modifier enoughAgreementfee(uint _index) {\n        require(msg.value >= uint(uint(Room_by_No[_index].rent_per_month) + uint(Room_by_No[_index].securityDeposit)), \"Not enough Ether in your wallet\");\n        _;\n    }\n    \n    modifier sameTenant(uint _index) {\n        require(msg.sender == Room_by_No[_index].currentTenant, \"No previous agreement found with you & landlord\");\n        _;\n    }\n    \n    modifier AgreementTimesLeft(uint _index) {\n        uint _AgreementNo = Room_by_No[_index].agreementid;\n        uint time = RoomAgreement_by_No[_AgreementNo].timestamp + RoomAgreement_by_No[_AgreementNo].lockInPeriod;\n        require(now < time, \"Agreement already Ended\");\n        _;\n    }\n    \n    modifier AgreementTimesUp(uint _index) {\n        uint _AgreementNo = Room_by_No[_index].agreementid;\n        uint time = RoomAgreement_by_No[_AgreementNo].timestamp + RoomAgreement_by_No[_AgreementNo].lockInPeriod;\n        require(now > time, \"Times left for contract to end\");\n        _;\n    }\n    \n    modifier RentTimesUp(uint _index) {\n        uint time = Room_by_No[_index].timestamp + 30 days;\n        require(now == time, \"Time left to pay Rent\");\n        _;\n    }\n\n    modifier notrequested(uint _index, uint _agreementid){\n        require(terminationreq[_index][_agreementid].requested == false, \"Already Requested\");\n        _;\n    }\n    \n    modifier enabled(uint _index){\n        require(Room_by_No[_index].disableroom == false, \"Room Already Disabled\");\n        _;\n    }\n    \n    function addRoom(string memory _housename, string memory _houseaddress, uint _rentcost, uint  _securitydeposit) public {\n        require(msg.sender != address(0));\n        no_of_rooms ++;\n        bool _vacancy = true;\n        Room_by_No[no_of_rooms] = Room(no_of_rooms,0,_housename,_houseaddress, _rentcost,_securitydeposit,0,_vacancy, msg.sender, address(0),0,false); \n        \n    }\n    \n    function signAgreement(uint _index) public payable notLandLord(_index) enoughAgreementfee(_index) OnlyWhileVacant(_index) enabled( _index){\n        require(msg.sender != address(0));\n        address payable _landlord = Room_by_No[_index].landlord;\n        uint totalfee = Room_by_No[_index].rent_per_month + Room_by_No[_index].securityDeposit;\n        \n        uint commision = (totalfee*commisionpercentage)/100;\n        uint rest = totalfee - commision;\n        admin.transfer(commision);\n        _landlord.transfer(rest);\n        \n        no_of_agreement++;\n\n        Room_by_No[_index].currentTenant = msg.sender;\n        Room_by_No[_index].vacant = false;\n        Room_by_No[_index].timestamp = block.timestamp;\n        Room_by_No[_index].agreementid = no_of_agreement;\n        RoomAgreement_by_No[no_of_agreement]=RoomAgreement(_index,no_of_agreement,Room_by_No[_index].housename,Room_by_No[_index].houseaddress,Room_by_No[_index].rent_per_month,Room_by_No[_index].securityDeposit,commisionpercentage,365 days,block.timestamp,msg.sender,_landlord);\n        no_of_rent++;\n        Rent_by_No[no_of_rent] = Rent(no_of_rent,_index,no_of_agreement,Room_by_No[_index].housename,Room_by_No[_index].houseaddress,Room_by_No[_index].rent_per_month,now,msg.sender,_landlord);\n        \n    }\n    \n    function payRent(uint _index) public payable sameTenant(_index) RentTimesUp(_index) enoughRent(_index) enabled( _index){\n        require(msg.sender != address(0));\n        address payable _landlord = Room_by_No[_index].landlord;\n        uint _rent = Room_by_No[_index].rent_per_month;\n        \n        _landlord.transfer(_rent);\n        \n        Room_by_No[_index].currentTenant = msg.sender;\n        Room_by_No[_index].vacant = false;\n        no_of_rent++;\n        Rent_by_No[no_of_rent] = Rent(no_of_rent,_index,Room_by_No[_index].agreementid,Room_by_No[_index].housename,Room_by_No[_index].houseaddress,_rent,now,msg.sender,Room_by_No[_index].landlord);\n    }\n\n    function agreementCompleted(uint _index) public payable onlyLandlord(_index) AgreementTimesUp(_index) enabled( _index){\n        require(msg.sender != address(0));\n        require(Room_by_No[_index].vacant == false, \"Room is currently Occupied.\");\n        Room_by_No[_index].vacant = true;\n        address payable _Tenant = Room_by_No[_index].currentTenant;\n        uint _securitydeposit = Room_by_No[_index].securityDeposit;\n        _Tenant.transfer(_securitydeposit);\n    }\n    \n    function agreementTerminated(uint _index, uint _terminateno) public onlyAdmin() AgreementTimesLeft(_index) enabled( _index){\n        require(msg.sender != address(0));\n        require(RequestAgreementTermination_By_No[_terminateno].completed == false, \"Request Already Completed\");\n        Room_by_No[_index].vacant = true;\n        RequestAgreementTermination_By_No[_terminateno].terminated = true;\n        RequestAgreementTermination_By_No[_terminateno].completed = true;\n\n    }\n\n    function reject(uint _index, uint _agreementno, uint _terminateno) public onlyAdmin() {\n        require(msg.sender != address(0));\n        require(RequestAgreementTermination_By_No[_terminateno].completed == false, \"Request Already Completed\");\n        terminationreq[_index][_agreementno].requested = false;\n        RequestAgreementTermination_By_No[_terminateno].rejected = true;\n        RequestAgreementTermination_By_No[_terminateno].completed = true;\n    }\n    \n    function requestTermination(uint _index,uint _agreementid) public onlyLandlord(_index) AgreementTimesLeft(_index) notrequested(_index,_agreementid) enabled( _index){\n        require(msg.sender != address(0));\n        terminationreq[_index][_agreementid].requested = true;\n        no_of_terminationrequest++;\n        RequestAgreementTermination_By_No[no_of_terminationrequest] = RequestAgreementTermination(no_of_terminationrequest,_index,_agreementid,now,Room_by_No[_index].landlord,Room_by_No[_index].currentTenant,false,false,false);\n        \n    }\n     \n    function changeCommision(uint _commision) public onlyAdmin() {\n        require(msg.sender != address(0));\n        require(_commision >= 0, \"can not be negative\");\n        require(_commision < 100, \"can not be equal or more than 100\");\n        commisionpercentage = _commision;\n    }\n    \n    function diableRoom(uint _index) public onlyAdmin() {\n        require(msg.sender != address(0));\n        if(Room_by_No[_index].disableroom == false){\n            Room_by_No[_index].disableroom = true;\n        }else{\n            Room_by_No[_index].disableroom = false;\n        }\n    }\n    \n    function Admin() public returns (address){\n        return(admin);\n    }\n    \n    function totalfee(uint _index) public returns (uint){\n        uint rent = Room_by_No[_index].rent_per_month;\n        uint securityDeposit = Room_by_No[_index].securityDeposit;\n        uint total =  rent + securityDeposit;\n        return(total);\n    }\n    \n    function rent(uint _index) public returns (uint){\n        uint rent = Room_by_No[_index].rent_per_month;\n        return(rent);\n    }\n\n    function securitydeposit(uint _index) public returns (uint){\n        uint rent = Room_by_No[_index].securityDeposit;\n        return(rent);\n    }\n\n    function landlordAddress(uint _index) public returns (address){\n        address landlordAddress = Room_by_No[_index].landlord;\n        return(landlordAddress);\n    }\n\n    function reportroom(uint index) public notLandLord(index) enabled( index){\n        require(msg.sender != address(0));\n        uint before = Room_by_No[index].reports;\n        if(reporters[msg.sender][index].reported==false){\n            before++;\n            Room_by_No[index].reports = before;\n            reporters[msg.sender][index].reported=true;\n        }\n        else{\n            before--;\n            Room_by_No[index].reports = before;\n            reporters[msg.sender][index].reported=false;\n        }\n    }\n\n}\n    ",
  "sourcePath": "E:\\Btech VIT\\6th Semester\\EDI - 4\\DCampus-main\\src\\contracts\\RentalAgreement.sol",
  "compiler": {
    "name": "solc",
    "version": "0.5.16+commit.9c3226ce.Emscripten.clang"
  },
  "schemaVersion": "3.4.16",
  "updatedAt": "2024-01-29T13:57:37.875Z",
  "networkType": "ethereum",
  "devdoc": {
    "methods": {}
  },
  "userdoc": {
    "methods": {}
  }
}